:020000040800F2
:10000000002800200D090008AD060008B30600080E
:10001000B9060008BF060008C50600080000000079
:10002000000000000000000000000000CB060008F7
:10003000D706000800000000E3060008EF060008ED
:100040005509000855090008550900085509000818
:100050005509000855090008550900085509000808
:1000600055090008550900085509000855090008F8
:1000700055090008550900085509000855090008E8
:1000800055090008550900085509000855090008D8
:1000900055090008550900085509000855090008C8
:1000A00055090008550900085509000855090008B8
:1000B000FD06000855090008000000005509000869
:1000C0005509000800000000000000005509000864
:1000D000000000005509000811070008000000009A
:1000E00055090008550900085509000800000000DE
:1000F0000000000000000000000000000000000000
:0C01000000000000000000005FF808F1A3
:10010C0010B5054C237833B9044B13B10448AFF345
:10011C0000800123237010BD70000020000000003F
:10012C00503E000808B5034B1BB103490348AFF31D
:10013C00008008BD0000000074000020503E000844
:10014C00034613F8012B002AFBD1181A013870470B
:10015C0080B500AF00F0FAFB00F026F800F028F9AB
:10016C0000F072F800F0FAF800F0ACF8094800F072
:10017C0027FD094801F0F2FF01220849084802F066
:10018C0054FC084B1B78012B01D100F059FB00F0FB
:10019C0087FBF6E7E400002014010020A4000020F7
:1001AC005C010020A600002080B594B000AF07F1E0
:1001BC00280328220021184603F0F0F907F1140354
:1001CC0000221A605A609A60DA601A613B1D0022A4
:1001DC001A605A609A60DA600223BB620123BB6327
:1001EC001023FB6300237B6407F12803184601F0FE
:1001FC00A1FA0346002B01D000F016F90F237B6106
:10020C000023BB610023FB6100233B6200237B6264
:10021C0007F114030021184601F00CFD0346002BD6
:10022C0001D000F001F902237B600023FB603B1D31
:10023C00184601F08DFE0346002B01D000F0F4F8B7
:10024C0000BF5037BD4680BD80B584B000AF3B1DAC
:10025C0000221A605A609A60184B194A1A60174BA0
:10026C0000229A60154B01221A73144B00221A7546
:10027C00124B4FF46022DA61104B00225A600F4B84
:10028C0001221A610D4800F0C3FB0346002B01D07C
:10029C0000F0CAF800237B600123BB600023FB60E5
:1002AC003B1D1946054800F045FD0346002B01D0C7
:1002BC0000F0BAF800BF1037BD4680BDE400002046
:1002CC000024014080B586B000AF07F1080300227E
:1002DC001A605A609A60DA603B4600221A605A60D3
:1002EC001D4B4FF080421A601B4B41F63F725A6017
:1002FC00194B00229A60184B0922DA60164B002227
:10030C001A61154B00229A61134801F0D7FE03467F
:10031C00002B01D000F088F84FF48053BB6007F13C
:10032C00080319460C4802F055F80346002B01D07F
:10033C0000F07AF800233B6000237B603B461946B3
:10034C00054802F02DFA0346002B01D000F06CF8A2
:10035C0000BF1837BD4680BD1401002080B500AF2A
:10036C00114B124A1A60104B4FF416525A600E4B36
:10037C0000229A600C4B0022DA600B4B00221A61AF
:10038C00094B0C225A61084B00229A61064B002241
:10039C00DA61054802F06EFA0346002B01D000F03A
:1003AC0043F800BF80BD00BF5C010020004400404A
:1003BC0080B586B000AF07F1080300221A605A60BE
:1003CC009A60DA60114B9B69104A43F00403936105
:1003DC000E4B9B6903F004037B607B680022202199
:1003EC000B4801F075F92023BB600123FB6000234F
:1003FC003B6102237B6107F108031946044800F0B6
:10040C00EDFF00BF1837BD4680BD00BF0010024095
:10041C000008014080B582B000AF786000F01EF893
:10042C0000BF0837BD4680BD80B400AF72B600BFB8
:10043C00FEE7000080B483B000AF7860054A7B68AB
:10044C001360054B00221A6000BF0C37BD4680BC00
:10045C00704700BF8C0000209000002080B400AFDB
:10046C00114B1B68002B0BDD0F4B1B68013B0E4A1D
:10047C0013600D4B1B68002B02DC0C4B01221A6025
:10048C000B4B1B68002B0BDD094B1B68013B084A0F
:10049C001360074B1B68002B02DC064B01221A6011
:1004AC0000BFBD4680BC70478C000020900000202F
:1004BC00940000209800002080B400AF044B002270
:1004CC001A60044B00221A6000BFBD4680BC704706
:1004DC00900000208C00002080B485B000AF154B3C
:1004EC009B69144A43F001039361124B9B6903F01F
:1004FC000103BB60BB680F4BDB690E4A43F08053B2
:10050C00D3610C4BDB6903F080537B607B680A4B37
:10051C005B68FB60FB6823F0E063FB60FB6843F007
:10052C008063FB60044AFB68536000BF1437BD4610
:10053C0080BC7047001002400000014080B588B0BC
:10054C0000AF786007F1100300221A605A609A60BD
:10055C00DA607B681B68144A934221D1134B9B6968
:10056C00124A43F400739361104B9B6903F40073BC
:10057C00FB60FB680D4B9B690C4A43F004039361D1
:10058C000A4B9B6903F00403BB60BB6801233B610E
:10059C0003237B6107F110031946054800F01EFF89
:1005AC0000BF2037BD4680BD002401400010024032
:1005BC000008014080B584B000AF78607B681B6890
:1005CC00B3F1804F13D10C4BDB690B4A43F00103A1
:1005DC00D361094BDB6903F00103FB60FB6800226C
:1005EC0000211C2000F011FE1C2000F02AFE00BF90
:1005FC001037BD4680BD00BF0010024080B588B0EA
:10060C0000AF786007F1100300221A605A609A60FC
:10061C00DA607B681B681F4A934237D11E4BDB693B
:10062C001D4A43F40033D3611B4BDB6903F40033E5
:10063C00FB60FB68184B9B69174A43F004039361FA
:10064C00154B9B6903F00403BB60BB6804233B613F
:10065C0002237B610323FB6107F1100319460F484A
:10066C0000F0BCFE08233B6100237B610023BB61CF
:10067C0007F110031946094800F0B0FE00220021D2
:10068C00262000F0C2FD262000F0DBFD00BF203745
:10069C00BD4680BD004400400010024000080140EF
:1006AC0080B400AFFEE780B400AFFEE780B400AFCB
:1006BC00FEE780B400AFFEE780B400AFFEE780B485
:1006CC0000AF00BFBD4680BC704780B400AF00BF18
:1006DC00BD4680BC704780B400AF00BFBD4680BC37
:1006EC00704780B500AF00F077F900BF80BD000007
:1006FC0080B500AF024801F07DFD00BF80BD00BF9A
:10070C001401002080B500AF024802F0B3F900BF1D
:10071C0080BD00BF5C01002080B586B000AF786062
:10072C00144A154BD31A7B617B693B61134B1B68D5
:10073C00002B02D1114B124A1A60104B1A687B68BD
:10074C0013443A699A4207D202F0FEFE03460C2289
:10075C001A604FF0FF3309E0084B1B68FB60074B36
:10076C001A687B681344054A1360FB6818461837EF
:10077C00BD4680BD00280020000400009C00002025
:10078C00D801002080B400AF00BFBD4680BC7047CC
:10079C0080B582B000AF78607B681B68134A9342C7
:1007AC001FD1322301221249124802F0B3F8124B26
:1007BC001B785A1CD1B2104A11701A460C4B19787E
:1007CC000E4B99540C4B1B781E2B02D10A4B00225A
:1007DC001A700B4B01221A7001220549054802F0D0
:1007EC0024F900BF0837BD4680BD00BF004400405F
:1007FC00A40000205C010020A5000020A401002022
:10080C00A600002080B483B000AF00237B6007E01B
:10081C00094A7B68134400221A707B6801337B60A1
:10082C007B681D2BF4DD054B00221A7000BF0C37C2
:10083C00BD4680BC704700BFA4010020A50000206D
:10084C0080B500AF05221149114802F0CFFE0346D6
:10085C00002B09D120210F4800F052FF0E4B012232
:10086C001A60FFF7CFFF0FE004220C49084802F092
:10087C00BDFE0346002B07D12021064800F040FFA7
:10088C00FFF71AFEFFF7BEFF00BF80BD683E0008F1
:10089C00A40100200008014090000020703E0008D8
:1008AC0080B500AF104B1B68012B1BD10F4800F01B
:1008BC0035FA03460E4A13600D4B1B681A460D4958
:1008CC000D4802F073FE0C48FFF73AFC03469AB24F
:1008DC004FF47A730849094802F01CF84FF49670EB
:1008EC00FFF7A8FD00BF80BD90000020E4000020B1
:1008FC00A0000020783E0008A80000205C01002029
:10090C00FFF740FF0B480C490C4A002302E0D45877
:10091C00C4500433C4188C42F9D3094A094C00233F
:10092C0001E013600432A242FBD302F013FEFFF786
:10093C000FFC70470000002070000020EC3E000807
:10094C0070000020D8010020FEE7000080B500AF49
:10095C00084B1B68074A43F010031360032000F098
:10096C0049FC0F2000F008F8FFF7B6FD00231846ED
:10097C0080BD00BF0020024080B582B000AF78601F
:10098C00124B1A68124B1B7819464FF47A73B3FB4F
:10099C00F1F3B2FBF3F3184600F061FC0346002BB5
:1009AC0001D001230EE07B680F2B0AD80022796856
:1009BC004FF0FF3000F029FC064A7B6813600023DF
:1009CC0000E0012318460837BD4680BD000000201A
:1009DC00080000200400002080B400AF054B1B78F9
:1009EC001A46054B1B681344034A136000BFBD46EF
:1009FC0080BC704708000020C401002080B400AF08
:100A0C00024B1B681846BD4680BC7047C4010020D1
:100A1C0080B586B000AF78600023FB7500233B6186
:100A2C000023BB600023FB607B68002B01D10123FA
:100A3C00BEE07B689B68002B7B689B6A002B09D10E
:100A4C007B680022DA627B68002283F824207868B5
:100A5C00FFF774FD786800F0BFFA0346FB757B68FE
:100A6C009B6A03F01003002B40F09980FB7D002B58
:100A7C0040F095807B689B6A23F4885323F0020333
:100A8C0043F002027B689A627B685A687B68DB6978
:100A9C001A437B681B7B5B001343BA681343BB6030
:100AAC007B689B68B3F5807F03D07B689B68012BC8
:100ABC0002D14FF4807300E000233A6913433B6189
:100ACC007B681B7D012B19D17B681B7B002B09D10B
:100ADC007B689B69013B5A033B69134343F40063F6
:100AEC003B610BE07B689B6A43F020027B689A6257
:100AFC007B68DB6A43F001027B68DA627B681B6807
:100B0C005B6823F469417B681B683A690A435A6045
:100B1C007B681B689A68284B13407A681268B9681E
:100B2C000B4393607B689B68B3F5807F03D07B6835
:100B3C009B68012B04D17B681B69013B1B05FB6087
:100B4C007B681B68DB6A23F470017B681B68FA689E
:100B5C000A43DA627B681B689A68184B1340BA68C0
:100B6C009A420BD17B680022DA627B689B6A23F085
:100B7C00030343F001027B689A6218E07B689B6A6E
:100B8C0023F0120343F010027B689A627B68DB6AE5
:100B9C0043F001027B68DA620123FB7507E07B6896
:100BAC009B6A43F010027B689A620123FB75FB7D04
:100BBC0018461837BD4680BDFDF7E1FFFE0E1FFF3E
:100BCC0080B584B000AF78600023FB737B6893F82A
:100BDC002430012B01D1022398E07B68012283F899
:100BEC002420786800F09EF90346FB73FB7B002BF6
:100BFC0040F087807B689B6A23F4407323F00103E9
:100C0C0043F480727B689A627B681B68414A93420A
:100C1C0005D1414B5B6803F47023002B15D17B6825
:100C2C009B6A23F480127B689A627B681B685B6802
:100C3C0003F48063002B26D07B689B6A23F440531B
:100C4C0043F480527B689A621DE07B689B6A43F494
:100C5C0080127B689A627B681B682F4A934204D08F
:100C6C007B681B682B4A93420DD12B4B5B6803F4BA
:100C7C008063002B07D07B689B6A23F4405343F4BA
:100C8C0080527B689A627B689B6A03F48053002BCA
:100C9C0006D07B68DB6A23F006027B68DA6202E02E
:100CAC007B680022DA627B68002283F824207B6850
:100CBC001B686FF002021A607B681B689B6803F468
:100CCC006023B3F5602F13D17B681B68114A9342E4
:100CDC0005D1114B5B6803F47023002B08D17B68A2
:100CEC001B689A687B681B6842F4A0029A600CE04F
:100CFC007B681B689A687B681B6842F480129A6058
:100D0C0003E07B68002283F82420FB7B1846103715
:100D1C00BD4680BD002801400024014080B483B052
:100D2C0000AF78607B681B68DB6C18460C37BD46DF
:100D3C0080BC704780B485B000AF78603960002308
:100D4C00FB730023BB607B6893F82430012B01D12B
:100D5C000223DCE07B68012283F824203B685B687B
:100D6C00062B1CD87B681B68596B3B685A6813466A
:100D7C009B001344053B1F2202FA03F3DB4319408B
:100D8C003B6818683B685A6813469B001344053B44
:100D9C0000FA03F27B681B680A435A633CE03B6829
:100DAC005B680C2B1CD87B681B68196B3B685A68FA
:100DBC0013469B001344233B1F2202FA03F3DB432D
:100DCC0019403B6818683B685A6813469B001344EB
:100DDC00233B00FA03F27B681B680A431A631BE08F
:100DEC007B681B68D96A3B685A6813469B0013449E
:100DFC00413B1F2202FA03F3DB4319403B6818689E
:100E0C003B685A6813469B001344413B00FA03F2BB
:100E1C007B681B680A43DA623B681B68092B1CD988
:100E2C007B681B68D9683B681A6813465B001344DF
:100E3C001E3B072202FA03F3DB4319403B68986818
:100E4C003B681A6813465B0013441E3B00FA03F21E
:100E5C007B681B680A43DA6019E07B681B681969B8
:100E6C003B681A6813465B001344072202FA03F32B
:100E7C00DB4319403B6898683B681A6813465B0073
:100E8C00134400FA03F27B681B680A431A613B683F
:100E9C001B68102B03D03B681B68112B32D17B686D
:100EAC001B681D4A934225D17B681B689B6803F421
:100EBC000003002B26D17B681B689A687B681B6833
:100ECC0042F400029A603B681B68102B1AD1134B3A
:100EDC001B68134AA2FB03239A0C13469B00134472
:100EEC005B00BB6002E0BB68013BBB60BB68002BD6
:100EFC00F9D107E07B689B6A43F020027B689A6219
:100F0C000123FB737B68002283F82420FB7B1846AB
:100F1C001437BD4680BC70470024014000000020FF
:100F2C0083DE1B4380B584B000AF78600023FB6088
:100F3C000023BB607B681B689B6803F00103012BDB
:100F4C0040D07B681B689A687B681B6842F0010282
:100F5C009A601F4B1B681F4AA2FB03239B0CBB60B0
:100F6C0002E0BB68013BBB60BB68002BF9D1FFF70B
:100F7C0045FDF8601FE0FFF741FD0246FB68D31A00
:100F8C00022B18D97B681B689B6803F00103012BAB
:100F9C0011D07B689B6A43F010027B689A627B6875
:100FAC00DB6A43F001027B68DA627B68002283F81B
:100FBC002420012307E07B681B689B6803F0010376
:100FCC00012BD8D1002318461037BD4680BD00BF79
:100FDC000000002083DE1B4380B584B000AF786036
:100FEC000023FB607B681B689B6803F00103012BEB
:100FFC002ED17B681B689A687B681B6822F0010203
:10100C009A60FFF7FBFCF8601BE0FFF7F7FC024669
:10101C00FB68D31A022B14D97B681B689B6803F0FE
:10102C000103012B0DD17B689B6A43F010027B6896
:10103C009A627B68DB6A43F001027B68DA62012307
:10104C0007E07B681B689B6803F00103012BDCD075
:10105C00002318461037BD4680BD000080B485B013
:10106C0000AF78607B6803F00703FB600C4BDB6818
:10107C00BB60BA684FF6FF031340BB60FB681A02F3
:10108C00BB68134343F0BF6343F40033BB60044AB3
:10109C00BB68D36000BF1437BD4680BC704700BF2F
:1010AC0000ED00E080B400AF044BDB681B0A03F0DA
:1010BC0007031846BD4680BC704700BF00ED00E03A
:1010CC0080B483B000AF0346FB7197F90730002B57
:1010DC000BDBFB7903F01F02064997F907305B091C
:1010EC00012000FA02F241F8232000BF0C37BD4664
:1010FC0080BC704700E100E080B483B000AF0346D1
:10110C003960FB7197F90730002B0ADB3B68DAB2C8
:10111C000C4997F907301201D2B20B4483F8002323
:10112C000AE03B68DAB20849FB7903F00F03043B91
:10113C001201D2B20B441A7600BF0C37BD4680BCEC
:10114C00704700BF00E100E000ED00E080B489B022
:10115C0000AFF860B9607A60FB6803F00703FB61CD
:10116C00FB69C3F10703042B28BF0423BB61FB6994
:10117C000433062B02D9FB69033B00E000237B619F
:10118C004FF0FF32BB6902FA03F3DA43BB681A4033
:10119C007B699A404FF0FF317B6901FA03F3D94325
:1011AC007B680B40134318462437BD4680BC704700
:1011BC0080B582B000AF78607B68013BB3F1807F73
:1011CC0001D301230FE00A4A7B68013B53600F21D6
:1011DC004FF0FF30FFF790FF054B00229A60044B55
:1011EC0007221A60002318460837BD4680BD00BF91
:1011FC0010E000E080B582B000AF78607868FFF74F
:10120C002DFF00BF0837BD4680BD80B586B000AF4E
:10121C000346B9607A60FB7300237B61FFF742FFE2
:10122C0078617A68B9687869FFF790FF024697F998
:10123C000F3011461846FFF75FFF00BF1837BD4649
:10124C0080BD80B582B000AF0346FB7197F90730C3
:10125C001846FFF735FF00BF0837BD4680BD80B587
:10126C0082B000AF78607868FFF7A2FF034618469B
:10127C000837BD4680BD80B485B000AF78600023D0
:10128C00FB737B6893F82130DBB2022B08D07B68B0
:10129C0004229A637B68002283F82020012320E03B
:1012AC007B681B681A687B681B6822F00E021A6048
:1012BC007B681B681A687B681B6822F001021A6045
:1012CC007B681A6C7B68DB6B012101FA02F25A60B5
:1012DC007B68012283F821207B68002283F8202080
:1012EC00FB7B18461437BD4680BC704780B584B074
:1012FC0000AF78600023FB737B6893F82130DBB27E
:10130C00022B05D07B6804229A630123FB7351E006
:10131C007B681B681A687B681B6822F00E021A60D7
:10132C007B681B681A687B681B6822F001021A60D4
:10133C007B681B68224A934229D07B681B68214A30
:10134C00934222D07B681B681F4A93421AD07B6859
:10135C001B681E4A934212D07B681B681C4A93423E
:10136C000AD07B681B681B4A934202D14FF480134E
:10137C000EE04FF080730BE04FF4803308E04FF435
:10138C00805305E04FF4807302E0102300E001234A
:10139C00114A53607B68012283F821207B6800226C
:1013AC0083F820207B685B6B002B03D07B685B6B26
:1013BC0078689847FB7B18461037BD4680BD00BF48
:1013CC00080002401C000240300002404400024071
:1013DC00580002406C0002400000024080B48BB008
:1013EC0000AF7860396000237B6200233B6248E1E8
:1013FC0001227B6A02FA03F3FB613B681B68FA6902
:10140C001340BB61BA69FB699A4240F037813B6873
:10141C005B68A34A93425ED0A14A934275D8A14A15
:10142C00934258D09F4A93426FD89F4A934252D0CE
:10143C009D4A934269D89D4A93424CD09B4A934211
:10144C0063D89B4A934246D0994A93425DD8122B5B
:10145C002AD8122B59D801A252F823F0E314000811
:10146C00BD140008CF14000811150008171500084A
:10147C001715000817150008171500081715000890
:10148C001715000817150008171500081715000880
:10149C001715000817150008171500081715000870
:1014AC00C5140008D9140008824A934213D02CE0CA
:1014BC003B68DB683B6229E03B68DB6804333B62DA
:1014CC0024E03B68DB6808333B621FE03B68DB6869
:1014DC000C333B621AE03B689B68002B02D104235F
:1014EC003B6213E03B689B68012B05D108233B62F0
:1014FC007B68FA691A6109E008233B627B68FA6928
:10150C005A6103E000233B6200E000BFBB69FF2B84
:10151C0001D87B6801E07B6804337B61BB69FF2BDE
:10152C0002D87B6A9B0002E07B6A083B9B003B6114
:10153C007B691A680F213B6901FA03F3DB431A40FC
:10154C00396A3B6901FA03F31A437B691A603B68F9
:10155C005B6803F08053002B00F09080564B9B6926
:10156C00554A43F001039361534B9B6903F001030C
:10157C00BB60BB68514A7B6A9B08023352F823302C
:10158C00FB607B6A03F003039B000F2202FA03F358
:10159C00DB43FA681340FB607B68494A93420DD0E9
:1015AC007B68484A934207D07B68474A934201D1F3
:1015BC00022304E0032302E0012300E000237A6A03
:1015CC0002F0030292009340FA681343FB603B491C
:1015DC007B6A9B080233FA6841F823203B685B68FE
:1015EC0003F48013002B06D0384B9A683749BB693B
:1015FC0013438B6006E0354B9A68BB69DB43334978
:10160C0013408B603B685B6803F40013002B06D01F
:10161C002E4BDA682D49BB691343CB6006E02B4B8C
:10162C00DA68BB69DB4329491340CB603B685B68D4
:10163C0003F40033002B06D0244B5A682349BB69B2
:10164C0013434B6006E0214B5A68BB69DB431F49CF
:10165C0013404B603B685B6803F48033002B06D06F
:10166C001A4B1A681949BB6913430B6006E0174BF8
:10167C001A68BB69DB43154913400B607B6A013365
:10168C007B623B681A687B6A22FA03F3002B7FF4B7
:10169C00AFAE00BF00BF2C37BD4680BC704700BF4B
:1016AC000000321000003110000022100000211048
:1016BC000000121000001110001002400000014048
:1016CC0000080140000C01400010014000040140E2
:1016DC0080B483B000AF78600B467B8013467B7080
:1016EC007B78002B03D07A887B681A6103E07B88B7
:1016FC001A047B681A6100BF0C37BD4680BC70476A
:10170C0080B485B000AF78600B467B807B68DB686B
:10171C00FB607A88FB6813401A04FB68D9437B880A
:10172C000B401A437B681A6100BF1437BD4680BC5E
:10173C007047000080B586B000AF78607B68002BE6
:10174C0001D101236CE27B681B6803F00103002BC1
:10175C0000F08780924B5B6803F00C03042B0CD0D9
:10176C008F4B5B6803F00C03082B12D18C4B5B681E
:10177C0003F48033B3F5803F0BD1894B1B6803F422
:10178C000033002B6CD07B685B68002B68D1012385
:10179C0046E27B685B68B3F5803F06D1804B1B68E3
:1017AC007F4A43F4803313602EE07B685B68002B28
:1017BC000CD17B4B1B687A4A23F480331360784B33
:1017CC001B68774A23F4802313601DE07B685B68F9
:1017DC00B3F5A02F0CD1724B1B68714A43F48023D4
:1017EC0013606F4B1B686E4A43F4803313600BE03D
:1017FC006B4B1B686A4A23F480331360684B1B687D
:10180C00674A23F4802313607B685B68002B13D03A
:10181C00FFF7F4F8386108E0FFF7F0F802463B698F
:10182C00D31A642B01D90323FAE15D4B1B6803F433
:10183C000033002BF0D014E0FFF7E0F8386108E03B
:10184C00FFF7DCF802463B69D31A642B01D903235A
:10185C00E6E1534B1B6803F40033002BF0D100E09E
:10186C0000BF7B681B6803F00203002B63D04C4B5A
:10187C005B6803F00C03002B0BD0494B5B6803F047
:10188C000C03082B1CD1464B5B6803F48033002BF4
:10189C0016D1434B1B6803F00203002B05D07B6869
:1018AC001B69012B01D00123BAE13D4B1B6823F0CE
:1018BC00F8027B685B69DB00394913430B603AE043
:1018CC007B681B69002B20D0364B01221A60FFF776
:1018DC0095F8386108E0FFF791F802463B69D31A96
:1018EC00022B01D903239BE12D4B1B6803F0020350
:1018FC00002BF0D02A4B1B6823F0F8027B685B6945
:10190C00DB00274913430B6015E0264B00221A60BD
:10191C00FFF774F8386108E0FFF770F802463B698E
:10192C00D31A022B01D903237AE11D4B1B6803F058
:10193C000203002BF0D17B681B6803F00803002B1B
:10194C003AD07B689B69002B19D0174B01221A6087
:10195C00FFF754F8386108E0FFF750F802463B698E
:10196C00D31A022B01D903235AE10D4B5B6A03F006
:10197C000203002BF0D0012000F0CCFA1CE00A4B43
:10198C0000221A60FFF73AF838610FE0FFF736F8DB
:10199C0002463B69D31A022B08D9032340E100BF4E
:1019AC000010024000004242800442429E4B5B6A9F
:1019BC0003F00203002BE9D17B681B6803F00403DE
:1019CC00002B00F0A6800023FB75974BDB6903F01E
:1019DC008053002B0DD1944BDB69934A43F0805319
:1019EC00D361914BDB6903F08053BB60BB6801236F
:1019FC00FB758E4B1B6803F48073002B18D18B4B3B
:101A0C001B688A4A43F480731360FEF7F7FF386152
:101A1C0008E0FEF7F3FF02463B69D31A642B01D9A9
:101A2C000323FDE0814B1B6803F48073002BF0D083
:101A3C007B68DB68012B06D17B4B1B6A7A4A43F02F
:101A4C00010313622DE07B68DB68002B0CD1764B15
:101A5C001B6A754A23F001031362734B1B6A724AAB
:101A6C0023F0040313621CE07B68DB68052B0CD1AC
:101A7C006D4B1B6A6C4A43F0040313626A4B1B6A7E
:101A8C00694A43F0010313620BE0674B1B6A664A19
:101A9C0023F001031362644B1B6A634A23F00403B3
:101AAC0013627B68DB68002B15D0FEF7A7FF38614B
:101ABC000AE0FEF7A3FF02463B69D31A41F28832D3
:101ACC00934201D90323ABE0574B1B6A03F002038B
:101ADC00002BEED014E0FEF791FF38610AE0FEF720
:101AEC008DFF02463B69D31A41F28832934201D9E9
:101AFC00032395E04C4B1B6A03F00203002BEED141
:101B0C00FB7D012B05D1484BDB69474A23F0805301
:101B1C00D3617B68DB69002B00F08180424B5B68F2
:101B2C0003F00C03082B61D07B68DB69022B46D1D8
:101B3C003F4B00221A60FEF761FF386108E0FEF7A8
:101B4C005DFF02463B69D31A022B01D9032367E0E0
:101B5C00354B1B6803F00073002BF0D17B681B6ABC
:101B6C00B3F5803F08D1304B5B6823F400327B68BF
:101B7C009B682D4913434B602B4B5B6823F4741209
:101B8C007B68196A7B685B6A0B43274913434B607C
:101B9C00274B01221A60FEF731FF386108E0FEF78F
:101BAC002DFF02463B69D31A022B01D9032337E0E0
:101BBC001D4B1B6803F00073002BF0D02FE01C4B67
:101BCC0000221A60FEF71AFF386108E0FEF716FFD4
:101BDC0002463B69D31A022B01D9032320E0124B96
:101BEC001B6803F00073002BF0D118E07B68DB69F5
:101BFC00012B01D1012313E00B4B5B68FB60FB68ED
:101C0C0003F480327B681B6A9A4206D1FB6803F4AA
:101C1C0070127B685B6A9A4201D0012300E00023BA
:101C2C0018461837BD4680BD0010024000700040B9
:101C3C006000424280B584B000AF786039607B6848
:101C4C00002B01D10123D0E06A4B1B6803F0070382
:101C5C003A689A4210D9674B1B6823F00702654912
:101C6C003B6813430B60634B1B6803F007033A6834
:101C7C009A4201D00123B8E07B681B6803F0020391
:101C8C00002B20D07B681B6803F00403002B05D0CD
:101C9C00594B5B68584A43F4E06353607B681B689C
:101CAC0003F00803002B05D0534B5B68524A43F4F6
:101CBC0060535360504B5B6823F0F0027B689B6869
:101CCC004D4913434B607B681B6803F00103002BE9
:101CDC0040D07B685B68012B07D1474B1B6803F432
:101CEC000033002B15D101237FE07B685B68022B4E
:101CFC0007D1414B1B6803F00073002B09D1012362
:101D0C0073E03D4B1B6803F00203002B01D1012350
:101D1C006BE0394B5B6823F003027B685B683649E8
:101D2C0013434B60FEF76AFEF8600AE0FEF766FEAE
:101D3C000246FB68D31A41F28832934201D903233D
:101D4C0053E02D4B5B6803F00C027B685B689B00D7
:101D5C009A42EBD1274B1B6803F007033A689A426F
:101D6C0010D2244B1B6823F0070222493B68134313
:101D7C000B60204B1B6803F007033A689A4201D0B2
:101D8C00012332E07B681B6803F00403002B08D0AE
:101D9C00194B5B6823F4E0627B68DB6816491343DC
:101DAC004B607B681B6803F00803002B09D0124BB7
:101DBC005B6823F460527B681B69DB000E4913439C
:101DCC004B6000F021F802460B4B5B681B0903F0DB
:101DDC000F030A49CB5C22FA03F3094A1360094B3F
:101DEC001B681846FEF7C8FD002318461037BD4681
:101DFC0080BD00BF0020024000100240843E00085D
:101E0C00000000200400002080B487B000AF002345
:101E1C00FB600023BB6000237B6100237B600023FD
:101E2C003B611E4B5B68FB60FB6803F00C03042BEF
:101E3C0002D0082B03D027E0194B3B6127E0FB684D
:101E4C009B0C03F00F03174AD35C7B60FB6803F415
:101E5C008033002B10D0114B5B685B0C03F001033B
:101E6C00114AD35CBB607B680D4A02FB03F2BB6872
:101E7C00B2FBF3F37B6104E07B680C4A02FB03F3D7
:101E8C007B617B693B6102E0054B3B6100BF3B69B9
:101E9C0018461C37BD4680BC704700BF001002407E
:101EAC0000127A009C3E0008AC3E000800093D0080
:101EBC0080B400AF024B1B681846BD4680BC70470F
:101ECC000000002080B500AFFFF7F2FF0246054B83
:101EDC005B681B0A03F007030349CB5C22FA03F38C
:101EEC00184680BD00100240943E000880B500AF3B
:101EFC00FFF7DEFF0246054B5B68DB0A03F00703C6
:101F0C000349CB5C22FA03F3184680BD0010024053
:101F1C00943E000880B485B000AF78600A4B1B6813
:101F2C000A4AA2FB03235B0A7A6802FB03F3FB60F9
:101F3C0000BFFB685A1EFA60002BF9D100BF00BF2E
:101F4C001437BD4680BC704700000020D34D621092
:101F5C0080B586B000AF786000233B610023FB6046
:101F6C007B681B6803F00103002B7DD00023FB75FD
:101F7C004F4BDB6903F08053002B0DD14C4BDB69CD
:101F8C004B4A43F08053D361494BDB6903F08053D8
:101F9C00BB60BB680123FB75464B1B6803F4807365
:101FAC00002B18D1434B1B68424A43F480731360D7
:101FBC00FEF724FD386108E0FEF720FD02463B6980
:101FCC00D31A642B01D903236DE03A4B1B6803F43D
:101FDC008073002BF0D0364B1B6A03F44073FB600C
:101FEC00FB68002B2ED07B685B6803F44073FA68A7
:101FFC009A4227D02E4B1B6A23F44073FB602E4B66
:10200C0001221A602C4B00221A60294AFB681362C9
:10201C00FB6803F00103002B14D0FEF7EFFC3861D2
:10202C000AE0FEF7EBFC02463B69D31A41F2883218
:10203C00934201D9032336E01D4B1B6A03F00203C4
:10204C00002BEED01A4B1B6A23F440727B685B6842
:10205C00174913430B62FB7D012B05D1144BDB6934
:10206C00134A23F08053D3617B681B6803F002038F
:10207C00002B08D00E4B5B6823F440427B689B68B6
:10208C000B4913434B607B681B6803F01003002B58
:10209C0008D0074B5B6823F480027B68DB6804493B
:1020AC0013434B60002318461837BD4680BD00BF54
:1020BC0000100240007000404004424280B582B0E3
:1020CC0000AF78607B68002B01D1012341E07B6875
:1020DC0093F83D30DBB2002B06D17B68002283F8ED
:1020EC003C207868FEF766FA7B68022283F83D2074
:1020FC007B681A687B6804331946104600F056FA60
:10210C007B68012283F846207B68012283F83E20FD
:10211C007B68012283F83F207B68012283F84020F2
:10212C007B68012283F841207B68012283F84220DE
:10213C007B68012283F843207B68012283F84420CA
:10214C007B68012283F845207B68012283F83D20BF
:10215C00002318460837BD4680BD000080B485B00A
:10216C0000AF78607B6893F83D30DBB2012B01D077
:10217C00012335E07B68022283F83D207B681B68D5
:10218C00DA687B681B6842F00102DA607B681B68C6
:10219C00164A934209D07B681B68B3F1804F04D078
:1021AC007B681B68124A934211D17B681B689B6841
:1021BC0003F00703FB60FB68062B10D07B681B68E1
:1021CC001A687B681B6842F001021A6007E07B68A2
:1021DC001B681A687B681B6842F001021A600023B6
:1021EC0018461437BD4680BC704700BF002C014018
:1021FC000004004080B584B000AF78607B681B6839
:10220C00DB68FB607B681B681B69BB60BB6803F009
:10221C000203002B20D0FB6803F00203002B1BD021
:10222C007B681B686FF002021A617B6801221A77C7
:10223C007B681B689B6903F00303002B03D0786851
:10224C0000F098F905E0786800F08BF9786800F0F8
:10225C009AF97B6800221A77BB6803F00403002B01
:10226C0020D0FB6803F00403002B1BD07B681B6899
:10227C006FF004021A617B6802221A777B681B6874
:10228C009B6903F44073002B03D0786800F072F95B
:10229C0005E0786800F065F9786800F074F97B68FF
:1022AC0000221A77BB6803F00803002B20D0FB68D0
:1022BC0003F00803002B1BD07B681B686FF008022F
:1022CC001A617B6804221A777B681B68DB6903F050
:1022DC000303002B03D0786800F04CF905E0786814
:1022EC0000F03FF9786800F04EF97B6800221A770D
:1022FC00BB6803F01003002B20D0FB6803F0100325
:10230C00002B1BD07B681B686FF010021A617B6876
:10231C0008221A777B681B68DB6903F44073002B77
:10232C0003D0786800F026F905E0786800F019F918
:10233C00786800F028F97B6800221A77BB6803F0F4
:10234C000103002B0CD0FB6803F00103002B07D01A
:10235C007B681B686FF001021A617868FEF75AF807
:10236C00BB6803F08003002B0CD0FB6803F08003E8
:10237C00002B07D07B681B686FF080021A617868AD
:10238C0000F06FFABB6803F04003002B0CD0FB6825
:10239C0003F04003002B07D07B681B686FF04002F2
:1023AC001A61786800F0F8F8BB6803F02003002B82
:1023BC000CD0FB6803F02003002B07D07B681B6854
:1023CC006FF020021A61786800F042FA00BF1037F3
:1023DC00BD4680BD80B584B000AF78603960002305
:1023EC00FB737B6893F83C30012B01D10223B4E0E2
:1023FC007B68012283F83C207B68022283F83D2015
:10240C007B681B689B68BB60BB6823F07703BB6071
:10241C00BB6823F47F43BB607B681B68BA689A6017
:10242C003B681B68B3F5005F3ED0B3F5005F00F26C
:10243C008780B3F5805F00F08680B3F5805F7FD82E
:10244C00702B1AD0702B7BD8602B50D0602B77D888
:10245C00502B3CD0502B73D8402B58D0402B6FD8DE
:10246C00302B64D0302B6BD8202B60D0202B67D82E
:10247C00002B5CD0102B5AD062E07B6818683B684C
:10248C0099683B685A683B68DB6800F06AF97B68BE
:10249C001B689B68BB60BB6843F07703BB607B68C1
:1024AC001B68BA689A604FE07B6818683B6899684B
:1024BC003B685A683B68DB6800F053F97B681B6823
:1024CC009A687B681B6842F480429A603CE07B68A7
:1024DC0018683B6859683B68DB681A4600F0CAF814
:1024EC007B681B685021184600F021F92CE07B68B2
:1024FC0018683B6859683B68DB681A4600F0E8F8D6
:10250C007B681B686021184600F011F91CE07B68A1
:10251C0018683B6859683B68DB681A4600F0AAF8F3
:10252C007B681B684021184600F001F90CE07B68C1
:10253C001A683B681B681946104600F0F8F803E06F
:10254C000123FB7300E000BF7B68012283F83D2070
:10255C007B68002283F83C20FB7B18461037BD4675
:10256C0080BD80B483B000AF786000BF0C37BD462F
:10257C0080BC704780B483B000AF786000BF0C376C
:10258C00BD4680BC704780B483B000AF786000BF9C
:10259C000C37BD4680BC704780B483B000AF786008
:1025AC0000BF0C37BD4680BC7047000080B485B0BE
:1025BC0000AF786039607B681B68FB607B682B4AD6
:1025CC00934207D07B68B3F1804F03D07B68284AD5
:1025DC00934208D1FB6823F07003FB603B685B6897
:1025EC00FA681343FB607B68204A934207D07B68F0
:1025FC00B3F1804F03D07B681D4A934208D1FB682E
:10260C0023F44073FB603B68DB68FA681343FB60A0
:10261C00FB6823F080023B685B691343FB607B68BB
:10262C00FA681A603B689A687B68DA623B681A68D9
:10263C007B689A627B680D4A934203D13B681A69A6
:10264C007B681A637B6801225A617B681B6903F003
:10265C000103002B05D07B681B6923F001027B680A
:10266C001A6100BF1437BD4680BC7047002C014076
:10267C000004004080B487B000AFF860B9607A60A5
:10268C00FB681B6A7B61FB681B6A23F00102FB6819
:10269C001A62FB689B693B613B6923F0F0033B6169
:1026AC007B681B013A6913433B617B6923F00A0386
:1026BC007B617A69BB6813437B61FB683A699A61F9
:1026CC00FB687A691A6200BF1C37BD4680BC704734
:1026DC0080B487B000AFF860B9607A60FB681B6AA1
:1026EC007B61FB681B6A23F01002FB681A62FB68B3
:1026FC009B693B613B6923F470433B617B681B0323
:10270C003A6913433B617B6923F0A0037B61BB688F
:10271C001B017A6913437B61FB683A699A61FB6818
:10272C007A691A6200BF1C37BD4680BC704780B402
:10273C0085B000AF786039607B689B68FB60FB6894
:10274C0023F07003FB603A68FB68134343F0070304
:10275C00FB607B68FA689A6000BF1437BD4680BC8A
:10276C00704780B487B000AFF860B9607A603B60A6
:10277C00FB689B687B617B6923F47F437B613B68CF
:10278C001A027B681A43BB6813437A6913437B6153
:10279C00FB687A699A6000BF1C37BD4680BC7047E5
:1027AC0080B485B000AF786039607B6893F83C30BA
:1027BC00012B01D1022341E07B68012283F83C20EC
:1027CC007B68022283F83D207B681B685B68FB609A
:1027DC007B681B689B68BB60FB6823F07003FB6025
:1027EC003B681B68FA681343FB607B681B68FA68DC
:1027FC005A607B681B68144A934209D07B681B683B
:10280C00B3F1804F04D07B681B68104A93420CD103
:10281C00BB6823F08003BB603B685B68BA681343FA
:10282C00BB607B681B68BA689A607B68012283F87E
:10283C003D207B68002283F83C2000231846143787
:10284C00BD4680BC704700BF002C01400004004016
:10285C0080B483B000AF786000BF0C37BD4680BC3D
:10286C00704780B483B000AF786000BF0C37BD46B2
:10287C0080BC704780B582B000AF78607B68002B5D
:10288C0001D1012342E07B6893F84130DBB2002B8D
:10289C0006D17B68002283F840207868FDF7AEFEF5
:1028AC007B68242283F841207B681B68DA687B688C
:1028BC001B6822F40052DA60786800F0B7FD7B6880
:1028CC001B681A697B681B6822F490421A617B684A
:1028DC001B685A697B681B6822F02A025A617B6864
:1028EC001B68DA687B681B6842F40052DA607B680C
:1028FC0000225A647B68202283F841207B682022C6
:10290C0083F842207B6800225A630023184608375C
:10291C00BD4680BD80B58AB002AFF860B9603B603F
:10292C001346FB8000237B61FB6893F84130DBB2DC
:10293C00202B75D1BB68002B02D0FB88002B01D15A
:10294C0001236EE0FB6800225A64FB68212283F8A5
:10295C004120FEF753F87861FB68FA889A84FB688B
:10296C00FA88DA84FB689B68B3F5805F08D1FB6852
:10297C001B69002B04D10023FB61BB68BB6103E026
:10298C00BB68FB610023BB612EE03B6800937B6955
:10299C0000228021F86800F01CFB0346002B05D0B8
:1029AC00FB68202283F8412003233AE0FB69002BCB
:1029BC000BD1BB691B881A46FB681B68C2F3080263
:1029CC005A60BB690233BB6107E0FB691A78FB688C
:1029DC001B685A60FB690133FB61FB68DB8C9BB2A3
:1029EC00013B9AB2FB68DA84FB68DB8C9BB2002B50
:1029FC00CBD13B6800937B6900224021F86800F042
:102A0C00E8FA0346002B05D0FB68202283F841200E
:102A1C00032306E0FB68202283F84120002300E01A
:102A2C00022318462037BD4680BD80B584B000AF68
:102A3C00F860B9601346FB80FB6893F84230DBB258
:102A4C00202B12D1BB68002B02D0FB88002B01D1AC
:102A5C0001230BE0FB6800221A63FB881A46B96855
:102A6C00F86800F00FFB034600E00223184610370D
:102A7C00BD4680BD80B5BAB000AF78607B681B687E
:102A8C001B68C7F8E4307B681B68DB68C7F8E0306C
:102A9C007B681B685B69C7F8DC300023C7F8D8304B
:102AAC000023C7F8D430D7F8E43003F00F03C7F88D
:102ABC00D830D7F8D830002B0FD1D7F8E43003F04A
:102ACC002003002B09D0D7F8E03003F02003002BB3
:102ADC0003D0786800F0ECFB5BE2D7F8D830002B21
:102AEC0000F0DE80D7F8DC3003F00103002B06D1B8
:102AFC00D7F8E03003F49073002B00F0D180D7F8B6
:102B0C00E43003F00103002B0BD0D7F8E03003F4D2
:102B1C008073002B05D07B685B6C43F001027B68F3
:102B2C005A64D7F8E43003F00403002B0BD0D7F829
:102B3C00DC3003F00103002B05D07B685B6C43F0A9
:102B4C0002027B685A64D7F8E43003F00203002BCE
:102B5C000BD0D7F8DC3003F00103002B05D07B68D9
:102B6C005B6C43F004027B685A64D7F8E43003F0E2
:102B7C000803002B11D0D7F8E03003F02003002B12
:102B8C0005D1D7F8DC3003F00103002B05D07B68AE
:102B9C005B6C43F008027B685A647B685B6C002BAF
:102BAC0000F0F281D7F8E43003F02003002B08D0BA
:102BBC00D7F8E03003F02003002B02D0786800F047
:102BCC0077FB7B681B685B6903F04003002B14BF29
:102BDC0001230023DBB2C7F8D4307B685B6C03F0B5
:102BEC000803002B03D1D7F8D430002B4FD07868D2
:102BFC0000F081FA7B681B685B6903F04003002BD3
:102C0C0041D07B681B681433C7F89C30D7F89C30D4
:102C1C0053E8003FC7F89830D7F8983023F04003BA
:102C2C00C7F8D0307B681B681433D7F8D020C7F8AE
:102C3C00A820C7F8A430D7F8A410D7F8A82041E8EA
:102C4C000023C7F8A030D7F8A030002BD9D17B686F
:102C5C00DB6B002B13D07B68DB6B7E4A5A637B6883
:102C6C00DB6B1846FEF742FB0346002B16D07B6845
:102C7C00DB6B5B6B7A68D26B104698470EE078681A
:102C8C0000F093F90AE0786800F08FF906E07868B4
:102C9C0000F08BF97B6800225A6475E100BF73E188
:102CAC007B681B6B012B40F04F81D7F8E43003F0AD
:102CBC001003002B00F04881D7F8E03003F010032C
:102CCC00002B00F041810023BB607B681B681B68F4
:102CDC00BB607B681B685B68BB60BB687B681B6800
:102CEC005B6903F04003002B00F0B6807B68DB6B64
:102CFC001B685B68A7F8BE30B7F8BE30002B00F03D
:102D0C0045817B689B8DB7F8BE209A4280F03E814E
:102D1C007B68B7F8BE20DA857B68DB6B9B69202B60
:102D2C0000F088807B681B680C33C7F88830D7F8B4
:102D3C00883053E8003FC7F88430D7F8843023F448
:102D4C008073C7F8B8307B681B680C33D7F8B82091
:102D5C00C7F89420C7F89030D7F89010D7F8942083
:102D6C0041E80023C7F88C30D7F88C30002BD9D130
:102D7C007B681B6814337B677B6F53E8003F3B67B2
:102D8C003B6F23F00103C7F8B4307B681B68143326
:102D9C00D7F8B420C7F88020FB67F96FD7F88020EC
:102DAC0041E80023BB67BB6F002BE1D17B681B683C
:102DBC0014333B663B6E53E8003FFB65FB6D23F021
:102DCC004003C7F8B0307B681B681433D7F8B020C9
:102DDC00FA66BB66B96EFA6E41E800237B667B6EC1
:102DEC00002BE3D17B68202283F842207B680022F1
:102DFC001A637B681B680C33FB64FB6C53E8003F65
:102E0C00BB64BB6C23F01003C7F8AC307B681B6849
:102E1C000C33D7F8AC20BA657B65796DBA6D41E897
:102E2C0000233B653B6D002BE3D17B68DB6B1846C5
:102E3C00FEF721FA7B6802225A637B689A8D7B68C5
:102E4C00DB8D9BB2D31A9BB21946786800F0B6F8AA
:102E5C009CE000BFC73100087B689A8D7B68DB8DD6
:102E6C009BB2D31AA7F8CE307B68DB8D9BB2002BBC
:102E7C0000F08E80B7F8CE30002B00F089807B6894
:102E8C001B680C33BB63BB6B53E8003F7B637B6BF2
:102E9C0023F49073C7F8C8307B681B680C33D7F8E1
:102EAC00C8207A643B64396C7A6C41E80023FB637C
:102EBC00FB6B002BE3D17B681B6814337B627B6A52
:102ECC0053E8003F3B623B6A23F00103C7F8C43070
:102EDC007B681B681433D7F8C4203A63FB62F96A29
:102EEC003A6B41E80023BB62BB6A002BE3D17B68E1
:102EFC00202283F842207B6800221A637B681B68BF
:102F0C000C333B613B6953E8003FFB60FB6823F0EB
:102F1C001003C7F8C0307B681B680C33D7F8C0208F
:102F2C00FA61BB61B969FA6941E800237B617B698D
:102F3C00002BE3D17B6802225A63B7F8CE301946D6
:102F4C00786800F03BF823E0D7F8E43003F0800316
:102F5C00002B09D0D7F8E03003F08003002B03D00E
:102F6C00786800F03EF914E0D7F8E43003F0400341
:102F7C00002B0ED0D7F8E03003F04003002B08D024
:102F8C00786800F07DF904E000BF02E000BF00E0CB
:102F9C0000BFE837BD4680BD80B483B000AF786019
:102FAC0000BF0C37BD4680BC704780B483B000AF07
:102FBC00786000BF0C37BD4680BC704780B483B0CE
:102FCC0000AF78600B467B8000BF0C37BD4680BCE1
:102FDC00704780B586B000AFF860B9603B601346AF
:102FEC00FB713BE03B6AB3F1FF3F37D0FDF706FDC9
:102FFC0002463B68D31A3A6A9A4202D33B6A002BC8
:10300C0001D103233AE0FB681B68DB6803F004037F
:10301C00002B23D0BB68802B20D0BB68402B1DD04D
:10302C00FB681B681B6803F00803082B16D10023F0
:10303C007B61FB681B681B687B61FB681B685B68BA
:10304C007B617B69F86800F056F8FB6808225A64CB
:10305C00FB68002283F8402001230FE0FB681B680B
:10306C001A68BB681340BA689A420CBF012300234C
:10307C00DBB21A46FB799A42B4D0002318461837B3
:10308C00BD4680BD80B485B000AFF860B960134612
:10309C00FB80FB68BA689A62FB68FA889A85FB68C1
:1030AC00FA88DA85FB6800225A64FB68222283F8CE
:1030BC004220FB681B69002B07D0FB681B68DA6891
:1030CC00FB681B6842F48072DA60FB681B685A6903
:1030DC00FB681B6842F001025A61FB681B68DA68E6
:1030EC00FB681B6842F02002DA6000231846143794
:1030FC00BD4680BC704780B495B000AF78607B68EB
:10310C001B680C337B637B6B53E8003F3B633B6B6F
:10311C0023F49073FB647B681B680C33FA6C3A6481
:10312C00FB63F96B3A6C41E80023BB63BB6B002B70
:10313C00E5D17B681B6814333B623B6A53E8003F64
:10314C00FB61FB6923F00103BB647B681B681433D0
:10315C00BA6CFA62BB62B96AFA6A41E800237B6214
:10316C007B6A002BE5D17B681B6B012B19D17B682B
:10317C001B680C33FB60FB6853E8003FBB60BB680B
:10318C0023F010037B647B681B680C337A6CBA6188
:10319C007B617969BA6941E800233B613B69002B8B
:1031AC00E5D17B68202283F842207B6800221A63D9
:1031BC0000BF5437BD4680BC704780B584B000AFAB
:1031CC0078607B685B6AFB60FB680022DA85FB68D1
:1031DC000022DA84F868FFF7E8FE00BF1037BD461E
:1031EC0080BD80B485B000AF78607B6893F84130C7
:1031FC00DBB2212B3ED17B689B68B3F5805F14D189
:10320C007B681B69002B10D17B681B6AFB60FB6819
:10321C001B881A467B681B68C2F308025A607B68DD
:10322C001B6A9A1C7B681A6208E07B681B6A591C33
:10323C007A6811621A787B681B685A607B68DB8C31
:10324C009BB2013B9BB27A681946D184002B0FD1FB
:10325C007B681B68DA687B681B6822F08002DA6086
:10326C007B681B68DA687B681B6842F04002DA6096
:10327C00002300E0022318461437BD4680BC70477B
:10328C0080B582B000AF78607B681B68DA687B68B9
:10329C001B6822F04002DA607B68202283F8412010
:1032AC007868FFF779FE002318460837BD4680BDC5
:1032BC0080B58CB000AF78607B6893F84230DBB29D
:1032CC00222B40F0AE807B689B68B3F5805F17D1F2
:1032DC007B681B69002B13D10023FB627B689B6A04
:1032EC00BB627B681B685B689BB2C3F308039AB232
:1032FC00BB6A1A807B689B6A9A1C7B689A6226E080
:10330C007B689B6AFB620023BB627B689B68B3F59E
:10331C00805F07D07B689B68002B0AD17B681B6998
:10332C00002B06D17B681B685B68DAB2FB6A1A70EB
:10333C0008E07B681B685B68DBB203F07F03DAB2E2
:10334C00FB6A1A707B689B6A5A1C7B689A627B6862
:10335C00DB8D9BB2013B9BB27A681946D185002B61
:10336C005DD17B681B68DA687B681B6822F02002E1
:10337C00DA607B681B68DA687B681B6822F48072F1
:10338C00DA607B681B685A697B681B6822F0010253
:10339C005A617B68202283F842207B6800225A63A2
:1033AC007B681B6B012B35D17B6800221A637B6811
:1033BC001B680C337B617B6953E8003F3B613B69C5
:1033CC0023F010037B627B681B680C337A6A3A62C9
:1033DC00FB61F9693A6A41E80023BB61BB69002BC8
:1033EC00E5D17B681B681B6803F01003102B0AD116
:1033FC000023FB607B681B681B68FB607B681B6899
:10340C005B68FB60FB687B689B8D19467868FFF7EF
:10341C00D5FD02E07868FDF7BBF9002302E000233C
:10342C0000E0022318463037BD4680BD80B584B01D
:10343C0000AF78607B681B681B6923F440517B6884
:10344C00DA687B681B680A431A617B689A687B6838
:10345C001B691A437B685B691343BB607B681B6801
:10346C00DB6823F4B05323F00C037A681268B96854
:10347C000B43D3607B681B685B6923F440717B68EA
:10348C009A697B681B680A435A617B681B682C4AE3
:10349C00934203D1FEF72AFDF86002E0FEF712FD1D
:1034AC00F860FA6813469B0013449A001A447B6830
:1034BC005B689B00B2FBF3F3224AA2FB03235B097C
:1034CC001901FA6813469B0013449A001A447B684E
:1034DC005B689B00B2FBF3F21A4BA3FB02035B0984
:1034EC00642000FB03F3D31A1B013233154AA2FBF1
:1034FC0003235B0903F0F0031944FA6813469B009D
:10350C0013449A001A447B685B689B00B2FBF3F28D
:10351C000C4BA3FB02035B09642000FB03F3D31ADF
:10352C001B013233074AA2FB03235B0903F00F0292
:10353C007B681B680A449A6000BF1037BD4680BD8B
:10354C00003801401F85EB51014B1868704700BFD4
:10355C000C00002070B500260C4D0D4C641BA41003
:10356C00A64209D100F06EFC00260A4D0A4C641BE1
:10357C00A410A64205D170BD55F8043B98470136FE
:10358C00EEE755F8043B98470136F2E7E43E0008B5
:10359C00E43E0008E43E0008E83E0008034602440E
:1035AC00934200D1704703F8011BF9E70EB46FF09A
:1035BC00004100B59CB01DAB0290069007910491A0
:1035CC000848094953F8042B0591006802A9019396
:1035DC0000F07AF80022029B1A701CB05DF804EB24
:1035EC0003B070470C0000200802FFFF10B56AB151
:1035FC000139841810F8013B11F8012F934203D1C3
:10360C00A04201D0002BF5D1981A10BD1046FCE752
:10361C002DE9F0478E6882469E420C4690461F4626
:10362C0038D88A8912F4906F32D025680969013331
:10363C00A5EB010965694B4405EB450505EBD57513
:10364C006D109D4238BF1D46530531D5294600F0FB
:10365C0053FB064650B90C234FF0FF30CAF800302C
:10366C00A38943F04003A381BDE8F0874A46216952
:10367C0000F0CEFAA38923F4906343F08003A38176
:10368C0026614E4426603E466561A5EB0905A560A2
:10369C00BE4200D93E4632464146206800F0C6FA8A
:1036AC00A36822689B1B32440020A3602260DBE7E6
:1036BC002A4600F07BFB06460028E1D150462169E2
:1036CC0000F0CEFAC7E700002DE9F04F98468B8941
:1036DC0007461B060D4614469DB00ED50B6963B903
:1036EC00402100F009FB2860286120B90C233B60C5
:1036FC004FF0FF30D1E040236B610023099320236E
:10370C008DF8293030234FF00109CDF80C80DFF80B
:10371C00A4818DF82A3023469A4613F8012B0AB15E
:10372C00252AF9D1BAEB040B0BD05B46224629466D
:10373C003846FFF76DFF013000F0AA80099A5A4411
:10374C0009929AF80030002B00F0A28000234FF071
:10375C00FF32CDE905230AF1010A049307938DF892
:10376C0053301A935446052214F8011B514800F0AB
:10377C0041FA049AD8B9D00644BF20238DF85330AF
:10378C00110744BF2B238DF853309AF800302A2BA5
:10379C0015D0544600204FF00A0C079A214611F818
:1037AC00013B303B092B4ED9B0B1079214E0A0EB92
:1037BC00080309FA03F31343A2460493D2E7039BCD
:1037CC00191D1B680391002BBBBF5B4242F0020228
:1037DC0007930793B8BF049223782E2B0CD16378F0
:1037EC002A2B35D1039B02341A1D1B680392002B24
:1037FC00B8BF4FF0FF330593DFF8C8A00322504643
:10380C00217800F0F7F940B14023A0EB0A0003FA4D
:10381C0000F0049B01340343049314F8011B0622AB
:10382C0025488DF8281000F0E5F9002838D0234BF6
:10383C001BBB039B073323F0070308330393099B3C
:10384C003344099367E70C4601200CFB0232A5E7D1
:10385C0000234FF00A0C194601340593204610F84A
:10386C00012B303A092A03D9002BC5D00591C3E7A7
:10387C00044601230CFB0121F0E703AB00932A461D
:10388C0038460F4B04A9AFF30080421C0646D6D134
:10389C00AB895B063FF52CAF09981DB0BDE8F08FE6
:1038AC0003AB00932A463846054B04A900F07CF87C
:1038BC00EBE700BFAE3E0008B83E00080000000079
:1038CC001D360008B43E00082DE9F047164699460F
:1038DC008A680B6907469342B8BF1346336091F868
:1038EC0043200C46DDF820800AB101333360236895
:1038FC00990642BF336802333360256815F006051C
:10390C0006D104F1190AE36832689B1AAB4228DC31
:10391C0094F84320131E226818BF012392062DD45D
:10392C004946384604F14302C047013020D0236891
:10393C00E56803F00603042B18BF002532684FF02E
:10394C000006A36808BFAD1A226908BF25EAE57511
:10395C009342C4BF9B1AED181A34B5421AD10020F9
:10396C0008E00123524649463846C047013003D18E
:10397C004FF0FF30BDE8F0870135C4E73020E11887
:10398C0081F843005A1C94F845102244023382F803
:10399C004310C5E70123224649463846C04701304B
:1039AC00E6D00136D9E700002DE9FF470C46277E0B
:1039BC009146782F80469A460C9904F1430207D819
:1039CC00622F0AD8002F00F0D980582F00F0A48065
:1039DC0004F1420684F842703AE0A7F16303152B18
:1039EC00F6D801A050F823F04D3A0008613A0008CF
:1039FC00DD390008DD390008DD390008DD39000843
:103A0C00613A0008DD390008DD390008DD390008AD
:103A1C00DD3900086F3B0008913A0008513B000863
:103A2C00DD390008DD390008913B0008DD3900085C
:103A3C00913A0008DD390008DD390008593B0008CF
:103A4C000B6804F142061A1D1B680A6084F84230A8
:103A5C000123A4E0256808682E0600F104030AD5AA
:103A6C0005680B60002D03DA2D236D4284F843307A
:103A7C000A235E4819E015F0400F05680B6018BF6B
:103A8C002DB2EFE70B682568181D0860280601D5D4
:103A9C001D6802E06906FBD51D886F2F0CBF08233B
:103AAC000A235248002184F843106668002EA8BFF0
:103ABC002168A660A4BF21F0040121600DB9002E7D
:103ACC004DD01646B5FBF3F103FB1157C75D06F855
:103ADC00017D2F46BB420D46F4D9082B0BD1236830
:103AEC00DF0708D5236961689942DEBF302306F8E9
:103AFC00013C06F1FF36921B22614B4621464046A3
:103B0C00CDF800A003AAFFF7DFFE01304CD14FF037
:103B1C00FF3004B0BDE8F087344884F845700E6877
:103B2C00236856F8045B1F060E6014D5D90744BFF2
:103B3C0043F0200323601DB9236823F02003236086
:103B4C001023AFE7236843F0200323607823284831
:103B5C0084F84530E3E75E0648BFADB2E6E71646AB
:103B6C00BBE70B6826681D1D60690D6035061B6878
:103B7C0001D5186002E07106FBD5188000231646AB
:103B8C002361BAE70B681A1D0A601E6800213046D3
:103B9C00626800F02FF808B1801B606063682361D5
:103BAC00002384F84330A8E732464946404623694F
:103BBC00D0470130ABD023689B0713D4E068039B3C
:103BCC009842B8BF1846A4E70123324649464046FE
:103BDC00D04701309BD00135E36803995B1AAB42A7
:103BEC00F2DCEBE7002504F11906F5E7BF3E00080F
:103BFC00D03E0008034610B5C9B2024493421846A1
:103C0C0001D1002003E0047801338C42F6D110BDC1
:103C1C000A44914200F1FF3300D1704710B511F8FE
:103C2C00014B914203F8014FF9D110BD884210B5F8
:103C3C0001EB020402D98442234607D8431EA14259
:103C4C0008D011F8012B03F8012FF8E701460244C4
:103C5C008A4200D110BD13F8014D02F8014DF7E76F
:103C6C0038B50546002943D051F8043C0C1F002BF5
:103C7C00B8BFE41800F0D0F81E4A1368104633B9E8
:103C8C00636014602846BDE8384000F0CBB8A3420E
:103C9C000AD921686218934201BF1A685B685218EE
:103CAC00226063600460EDE71A465B680BB1A342C7
:103CBC00FAD911685018A0420BD120680144501851
:103CCC0083421160DED118685B6801441160536057
:103CDC00D8E702D90C232B60D4E7206821188B423B
:103CEC0001BF19685B680918216063605460C9E7FB
:103CFC0038BD00BFDC000020F8B5CD1C25F0030555
:103D0C0008350C2D38BF0C25002D064601DBA942C9
:103D1C0003D90C2333600020F8BD00F07DF8214955
:103D2C000A6814469CB9204F3B6823B9214630469B
:103D3C0000F062F838602946304600F05DF8431C0C
:103D4C0023D10C233046336000F06CF8E3E7236892
:103D5C005B1B17D40B2B03D923601C44256004E098
:103D6C006368A2420CBF0B605360304600F05AF8F7
:103D7C0004F10B00231D20F00700C21ACCD01B1A33
:103D8C00A350C9E722466468CCE7C41C24F00304A2
:103D9C00A042E3D0211A304600F02EF80130DDD1DC
:103DAC00CFE700BFDC000020E0000020F8B507469C
:103DBC0014460E4621B91146BDE8F840FFF79CBFEA
:103DCC0022B9FFF74DFF25462846F8BD00F030F824
:103DDC00A0420FD221463846FFF78EFF0546002839
:103DEC00F2D031462246FFF713FF31463846FFF733
:103DFC0037FFE9E73546E7E738B50023054D0446BC
:103E0C0008462B60FCF788FC431C02D12B6803B1DD
:103E1C00236038BDC8010020014800F011B800BF74
:103E2C00D0010020014800F00CB800BFD0010020E8
:103E3C0051F8043C181F002BBCBF0B58C01870471E
:103E4C0070477047F8B500BFF8BC08BC9E46704779
:0C3E5C00F8B500BFF8BC08BC9E467047DB
:103E68002152535423000000214F4B23000000002F
:103E78000D0A214144433D256C75230000000000D4
:103E88000000000001020304060708090000000002
:103E98000102030402030405060708090A0B0C0DB6
:103EA8000E0F10100102232D302B2000686C4C00DF
:103EB8006566674546470030313233343536373822
:103EC8003941424344454600303132333435363780
:0C3ED80038396162636465660000000018
:043EE40031010008A0
:043EE8000D010008C0
:103EEC0000127A00100000000100000010000020F9
:103EFC0000000000000000000000000000000000B6
:103F0C0000000000000000000000000000000000A5
:103F1C000000000000000000000000000000000095
:103F2C000000000000000000000000000000000085
:103F3C000000000000000000000000000000000075
:103F4C000000000000000000000000000000000065
:040000050800090DD9
:00000001FF
